:100000000C94E0000C9408010C9408010C94080175
:100010000C9408010C9408010C9408010C9408013C
:100020000C9408010C9408010C9408010C9408012C
:100030000C9408010C9408010C9408010C9408011C
:100040000C94BF050C9408010C948D050C94670565
:100050000C9408010C9408010C9408010C940801FC
:100060000C9408010C94080100407A10F35A00A087
:10007000724E18090010A5D4E80000E87648170071
:1000800000E40B54020000CA9A3B000000E1F505B1
:10009000000080969800000040420F000000A086FB
:1000A00001000000102700000000E803000000002D
:1000B0006400000000000A000000000001000000D1
:1000C00000002C76D888DC674F0823DFC1DFAE59EB
:1000D000E1B1B796E5E3E453C63AE651997696E87E
:1000E000E6C28426EB898C9B62ED407C6FFCEFBC02
:1000F0009C9F40F2BAA56FA5F490055A2AF75C932D
:100100006B6CF9676DC11BFCE0E40D47FEF520E662
:10011000B500D0ED902E0300943577050080841E45
:10012000080000204E0A000000C80C333333330FA0
:10013000986E12831141EF8D2114893BE65516CF3D
:10014000FEE6DB18D1844B381BF77C1D901DA4BB49
:10015000E424203284725E228100C9F124ECA1E5FE
:100160003D2700000000240027002A0000000000B6
:10017000250028002B0000000008000201000003F9
:100180000407000000000000000000000000230041
:1001900026002900040404040404040402020202E8
:1001A000020203030303030301020408102040803A
:1001B0000102040810200102040810204E06D50890
:1001C00011241FBECFEFD8E0DEBFCDBF22E0A8EBE9
:1001D000B1E001C01D92A239B207E1F711E0A0E041
:1001E000B1E0E0EAFEE102C005900D92A83BB10744
:1001F000D9F710E0CFEDD0E004C02197FE010E94B6
:10020000310DCE3DD107C9F70E949F060C94430FD4
:100210000C940000CF92DF92EF92FF920F931F9306
:10022000CF93DF936C017A018B01C0E0D0E0CE1553
:10023000DF0589F0D8016D918D01D601ED91FC911A
:100240000190F081E02DC6010995892B11F47E0102
:1002500002C02196ECCFC701DF91CF911F910F9182
:10026000FF90EF90DF90CF900895FC01538D448D67
:10027000252F30E0842F90E0821B930B541710F051
:10028000CF96089501970895FC01918D828D98175E
:1002900061F0828DDF01A80FB11D5D968C91928D6A
:1002A0009F5F9F73928F90E008958FEF9FEF089567
:1002B000FC01918D828D981731F0828DE80FF11D30
:1002C000858D90E008958FEF9FEF0895FC01918D4B
:1002D000228D892F90E0805C9F4F821B91098F7344
:1002E0009927089583ED91E00E94660121E0892B12
:1002F00009F420E0822F0895FC01848DDF01A80F0E
:10030000B11DA35ABF4F2C91848D90E001968F733D
:100310009927848FA689B7892C93A089B1898C915C
:1003200080648C93938D848D981306C00288F38922
:10033000E02D80818F7D80830895EF92FF920F934F
:100340001F93CF93DF93EC0181E0888F9B8D8C8D81
:10035000981305C0E889F989808185FD24C0F62EAF
:100360000B8D10E00F5F1F4F0F731127E02E8C8D48
:10037000E8120CC00FB607FCFACFE889F989808132
:1003800085FFF5CFCE010E947C01F1CF8B8DFE0160
:10039000E80FF11DE35AFF4FF0820B8FEA89FB89CA
:1003A0008081806207C0EE89FF896083E889F989CE
:1003B00080818064808381E090E0DF91CF911F9104
:1003C0000F91FF90EF900895CF93DF93EC01888D0C
:1003D0008823C9F0EA89FB89808185FD05C0A88949
:1003E000B9898C9186FD0FC00FB607FCF5CF8081CF
:1003F00085FFF2CFA889B9898C9185FFEDCFCE0119
:100400000E947C01E7CFDF91CF91089580E090E0DA
:10041000892B29F00E94720181110C94000008952B
:10042000833081F028F4813099F08230A1F0089572
:100430008730A9F08830B9F08430D1F48091800001
:100440008F7D03C0809180008F7780938000089516
:1004500084B58F7702C084B58F7D84BD0895809167
:10046000B0008F7703C08091B0008F7D8093B00083
:1004700008951F93CF93DF93282F30E0F901EA58B6
:10048000FE4F8491F901E855FE4FD491F901EC56E5
:10049000FE4FC491CC23C9F0162F81110E94100287
:1004A000EC2FF0E0EE0FFF1FE459FE4FA591B49141
:1004B0008FB7F894111105C09C91ED2FE095E923B9
:1004C00002C0EC91ED2BEC938FBFDF91CF911F9188
:1004D0000895CF93DF9390E0FC01E855FE4F2491FF
:1004E000FC01EC56FE4F8491882361F190E0880F67
:1004F000991FFC01EE59FE4FC591D491FC01E459BE
:10050000FE4FA591B491611109C09FB7F8948881FD
:10051000209582238883EC912E230BC0623061F4F6
:100520009FB7F8943881822F809583238883EC913C
:100530002E2B2C939FBF06C08FB7F894E8812E2BEB
:1005400028838FBFDF91CF9108953FB7F8948091B2
:10055000BD019091BE01A091BF01B091C00126B52F
:10056000A89B05C02F3F19F00196A11DB11D3FBFEB
:10057000BA2FA92F982F8827820F911DA11DB11D79
:10058000BC01CD0142E0660F771F881F991F4A9575
:10059000D1F70895CF93DF93EC0160E08E810E9444
:1005A000390261E08E810E94390260E08E810E94F2
:1005B00039028BE891E00197F1F7DF91CF9108952F
:1005C000CF92DF92EF92FF920F931F93CF93DF931F
:1005D0007C016C0187E0C80ED11CC0E0D0E0062F82
:1005E00010E0B8010C2E02C0759567950A94E2F7E9
:1005F0006170F60181916F010E9439022196C43029
:10060000D10579F7C701DF91CF911F910F91FF902D
:10061000EF90DF90CF900C94CA02CF92DF92EF92CE
:10062000FF920F931F93CF93DF93EC01F62E642F6D
:100630008C810E9439028D818F3F19F060E00E9409
:1006400039028F850F2D10E084FF25C06E0187E0F1
:10065000C80ED11CE12CF12CB8010E2C02C07595EE
:1006600067950A94E2F76170F60181916F010E942B
:100670003902FFEFEF1AFF0A88E0E816F10461F78C
:10068000CE01DF91CF911F910F91FF90EF90DF90FE
:10069000CF900C94CA02B80184E0759567958A954D
:1006A000E1F7CE010E94E0026F2DCE01DF91CF91E4
:1006B0001F910F91FF90EF90DF90CF900C94E0028C
:1006C00041E00E940D0381E090E0089540E00C9429
:1006D0000D03EF92FF920F931F93CF93DF93EC01E3
:1006E000623018F08F8588608F876B8B1C8A80E45E
:1006F0008D8B80E18E8B80E58F8B61E08C810E94F9
:1007000069028D818F3F19F061E00E94690261E00A
:100710008E810E9469027E0187E0E80EF11C00E0F4
:1007200010E08F8584FD03C084E090E002C088E083
:1007300090E0081719074CF461E0F70181917F01FF
:100740000E9469020F5F1F4FECCF8BE39DE0019782
:10075000F1F760E08C810E94390260E08E810E9496
:1007600039028D818F3F19F060E00E9439026F8558
:1007700064FD1DC063E0CE010E94E0020BE416E4BC
:10078000C8010197F1F763E0CE010E94E002C801C1
:100790000197F1F763E0CE010E94E00283E592E069
:1007A0000197F1F762E0CE010E94E00216C060629C
:1007B000CE010E9466038BE496E40197F1F76F8502
:1007C0006062CE010E94660383E592E00197F1F733
:1007D0006F856062CE010E9466036F856062CE0104
:1007E0000E94660384E0888B6CE0CE010E94660361
:1007F00061E0CE010E9466038BE39FE10197F1F770
:1008000082E0898B66E0CE01DF91CF911F910F913D
:10081000FF90EF900C946603843008F083E0909191
:100820008302891710F08FEF890FE82FF0E0E0596D
:10083000FD4F6489606880E792E00C946603089538
:1008400080E090E00895CF93DF93FC0144815581CF
:100850006081718183ED91E00E940A01EC0142E028
:1008600050E064E271E083ED91E00E940A018C0F98
:100870009D1FDF91CF9108950F931F93E1EBF1E05E
:100880006491EDE9F1E0E491882311F0462F01C075
:1008900040E0F0E0EE0FFF1FE657FE4F8591949188
:1008A00000E412E42FE030E00E94090661157105B2
:1008B0008105910549F0DC01CB010196A11DB11D17
:1008C000BC01CD019F7003C060E070E0CB011F91BF
:1008D0000F9108950E942E0F0F931F93CF93DF93D4
:1008E000EC0188819981009729F02A813B812617A4
:1008F000370788F48B016F5F7F4F0E94640E00976B
:1009000061F0998388831B830A832C813D81232B8B
:1009100011F4FC01108281E001C080E0DF91CF91F1
:100920001F910F910895CF93DF93EC0188819981F6
:10093000009711F00E94CC0D198218821D821C8232
:100940001B821A82DF91CF9108950F931F93CF934B
:10095000DF93EC010C811D81085F1F4FB8010E94DD
:100960006C04882369F0288139818C819D8167E23C
:1009700071E0820F931F0E943C0F1D830C8303C004
:10098000CE010E949304CE01DF91CF911F910F9170
:100990000895EF92FF920F931F93CF93DF93EC0193
:1009A000FB0184819581E080F1800C811D81E1143F
:1009B000F104B1F00097B9F0080F191FB801CE018A
:1009C0000E946C04882361F0288139818C819D818B
:1009D000B701820F931F0E943C0F1D830C8303C03D
:1009E000CE010E949304CE01DF91CF911F910F9110
:1009F000FF90EF900895EF92FF920F931F93CF9384
:100A0000DF93EC01198218821B821A821D821C82DC
:100A10006115710521F18B01FB0101900020E9F7BF
:100A200031977F01E61AF70AB7010E946C04811121
:100A300009C0CE01DF91CF911F910F91FF90EF90F0
:100A40000C949304FD82EC82B80188819981DF9136
:100A5000CF911F910F91FF90EF900C943C0FDF917D
:100A6000CF911F910F91FF90EF900895EF92FF9219
:100A70000F931F93CF93DF938C017B016115710559
:100A800069F0FB0101900020E9F73197EF01C61BE7
:100A9000D70BBE010E946C04811104C0C8010E94E2
:100AA000930408C0F801D583C483B7018081918184
:100AB0000E943C0FC801DF91CF911F910F91FF90D1
:100AC000EF900895FC01808191810C94CC0D1F92D0
:100AD0000F920FB60F9211242F933F934F935F9372
:100AE0006F937F938F939F93AF93BF93EF93FF93F6
:100AF00083ED91E00E947C01FF91EF91BF91AF9156
:100B00009F918F917F916F915F914F913F912F9125
:100B10000F900FBE0F901F9018951F920F920FB657
:100B20000F9211242F938F939F93EF93FF93E09154
:100B3000E301F091E4018081E091E901F091EA01A3
:100B400082FD12C090818091EC018F5F8F732091A4
:100B5000ED01821751F0E091EC01F0E0ED52FE4F13
:100B6000958F8093EC0101C08081FF91EF919F915F
:100B70008F912F910F900FBE0F901F9018951F927D
:100B80000F920FB60F9211242F933F938F939F9341
:100B9000AF93BF938091B9019091BA01A091BB012D
:100BA000B091BC013091B80123E0230F2D3720F420
:100BB0000196A11DB11D05C026E8230F0296A11DB7
:100BC000B11D2093B8018093B9019093BA01A0930D
:100BD000BB01B093BC018091BD019091BE01A09179
:100BE000BF01B091C0010196A11DB11D8093BD014F
:100BF0009093BE01A093BF01B093C001BF91AF918C
:100C00009F918F913F912F910F900FBE0F901F904A
:100C10001895CF92DF92EF92FF920F931F93E82FD8
:100C2000F92F05C0015011092109310961F19081A5
:100C300096239417B9F305C0015011092109310910
:100C400011F1908196239413F7CFC12CD12CE12C74
:100C5000F12C0AC08FEFC81AD80AE80AF80A0C1556
:100C60001D052E053F0579F080818623841791F3B9
:100C70006C2D7D2D8E2D9F2D1F910F91FF90EF904C
:100C8000DF90CF90089560E070E080E090E01F91E9
:100C90000F91FF90EF90DF90CF900895E3EDF1E09A
:100CA0001382128288EE93E0A0E0B0E08483958303
:100CB000A683B7838AE091E09183808385EC90E0FE
:100CC0009587848784EC90E09787868780EC90E016
:100CD000918B808B81EC90E0938B828B82EC90E007
:100CE000958B848B86EC90E0978B868B118E128E81
:100CF000138E148E66E271E088E892E00E94FB0495
:100D0000E0E7F2E0138212828CE191E0918380832C
:100D10008CE084838FEF85838BE0868385E08783F7
:100D200084E0808783E0818782E08287138614864F
:100D300015861686178661E0CF010C946903CF9360
:100D4000DF93CDB7DEB7A7970FB6F894DEBF0FBE1F
:100D5000CDBF789484B5826084BD84B5816084BD44
:100D600085B5826085BD85B5816085BD80916E0049
:100D7000816080936E00109281008091810082607A
:100D800080938100809181008160809381008091B7
:100D900080008160809380008091B10084608093A6
:100DA000B1008091B00081608093B00080917A00A2
:100DB000846080937A0080917A00826080937A00C8
:100DC00080917A00816080937A0080917A008068B7
:100DD00080937A001092C100E091E301F091E40168
:100DE00082E08083E091DF01F091E0011082E091E8
:100DF000E101F091E2018FEC80831092EB01E09130
:100E0000E701F091E80186E08083E091E501F0914F
:100E1000E601808180618083E091E501F091E60147
:100E2000808188608083E091E501F091E601808116
:100E300080688083E091E501F091E60180818F7DFB
:100E4000808361E08AE00E94690261E08DE00E9497
:100E5000690260E089E00E94690262E086E00E9427
:100E6000690260918002862F8460809380026C60AA
:100E700080E792E00E94660362E080E792E00E94D1
:100E800069033CE7E32E31E0F32E4EEAC42E41E045
:100E9000D42E5AE9252E51E0352E81E00E943C04E3
:100EA0000E94640B6093CF017093D0018093D101B5
:100EB0009093D20180E00E943C040E94640B6093F6
:100EC000CB017093CC018093CD019093CE01209102
:100ED000CF013091D0014091D1015091D2010E94B7
:100EE0004E0C9B01AC016093C7017093C8018093C5
:100EF000C9019093CA0160E074E284E799E40E941A
:100F0000BA0C2B013C016093C3017093C401809320
:100F1000C5019093C601F7018491F6010491F10196
:100F200014911123A9F081110E941002812F90E0E9
:100F3000880F991F86579E4FFC01A591B4918C9103
:100F4000082331E020E009F430E0832F922F02C023
:100F500080E090E09093C2018093C101892B09F059
:100F600072C020E030E040EA52E4C301B2010E94C6
:100F70002C0D1816B4F420E030E048EC52E4C30124
:100F8000B2010E945F0B87FF0CC060E371E088E84C
:100F900092E00E94360561E08DE00E94390260E037
:100FA0000BC065E371E088E892E00E94360560E0DE
:100FB0008DE00E94390261E08AE00E94390280E0FF
:100FC0000E940C0440E150E06AE371E080E792E0A7
:100FD0000E940A0181E00E940C046BE471E0CE01E2
:100FE00001960E94FB0468E872E0CE0101960E941F
:100FF000C904FC01448155816081718180E792E0E0
:101000000E940A01CE0101960E9462056091C3010F
:101010007091C4018091C5019091C6011BA21AA2D2
:101020001DA21CA21FA21EA28E010F5F1F4F22E055
:1010300044E00E94D908BC01CE0182960E94360588
:1010400065E571E071C020E030E046E653E4C3019D
:10105000B2010E942C0D1816B4F420E030E04AE7EB
:1010600053E4C301B2010E945F0B87FF0CC060E331
:1010700071E088E892E00E94360561E08DE00E9410
:10108000390260E00BC065E371E088E892E00E94FD
:10109000360560E08DE00E94390261E08AE00E943E
:1010A000390280E00E940C0440E150E06EE771E0FC
:1010B00080E792E00E940A0181E00E940C046BE448
:1010C00071E0CE0101960E94FB0468E872E0CE0157
:1010D00001960E94C904FC0144815581608171819F
:1010E00080E792E00E940A01CE0101960E9462050B
:1010F0006091C3017091C4018091C5019091C601B6
:101100001BA21AA21DA21CA21FA21EA28E010F5F6B
:101110001F4F22E044E00E94D908BC01CE01829614
:101120000E9436056FE871E0C8010E94FB04BE0111
:101130006E5D7F4FC8010E94C9040E94A50468E843
:1011400072E00E94C9040E942304C8010E94620543
:10115000CE0182960E9462050E94A5024B015C01AD
:1011600088EC482E512C612C712C0E94A502DC01C8
:10117000CB0188199909AA09BB09883E9340A105AA
:10118000B10558F0F1E04F1A51086108710828EED6
:10119000820E23E0921EA11CB11C41145104610473
:1011A000710419F70E94060278CE88E892E00C9448
:1011B0006205EF920F931F93CF93DF93E80147FDF2
:1011C00002C034E001C034E1E42F440FFF0BF7FF0D
:1011D00003C0F195E195F109E32E022F2E2FAE0108
:1011E0000E94F908CE01DF91CF911F910F91EF90EE
:1011F00008954F925F926F927F929F92AF92BF92AB
:10120000CF92DF92EF92FF920F931F93CF93DF93D2
:10121000CDB7DEB729970FB6F894DEBF0FBECDBFAE
:101220006A01122FB02E2BE3201720F0FF24F39435
:10123000F00E02C0BCE3FB2E0F2D27E0AE014F5F86
:101240005F4F0E94870AAC018981982F9970913075
:1012500031F0E1FC06C0E0FE06C090E205C09DE270
:1012600003C09BE201C090E0EE2DE07183FF3CC023
:10127000911102C083E001C084E0811718F4212F8E
:10128000281B01C020E0E1110BC0F601822F30E2E3
:10129000882319F031938150FBCFC20ED11C20E07E
:1012A000992329F0D6019C93F60131966F01C6016E
:1012B0000396E2FE0AC03EE4D6013C9341E4119657
:1012C0004C93119712963C9306C03EE6F60130838C
:1012D00041E641833283FC01322F40E2332309F49B
:1012E00042C041933150FACF82FF44C0911102C0F5
:1012F00083E001C084E0811718F4212F281B01C06E
:1013000020E0E1110BC0F601822F30E2882319F0B2
:1013100031938150FBCFC20ED11C20E0992329F0DC
:10132000D6019C93F60131966F01C6010396E2FE49
:101330000BC039E4D6013C933EE411963C931197DF
:1013400036E412963C9307C039E6F60130833EE658
:10135000318336E63283FC01322F40E2332319F029
:1013600041933150FBCFFC01E20FF11D10828EEF53
:101370009FEFB7C0F1E0911101C0F0E06F2F70E076
:101380001416150624F49A012F5F3F4F02C021E086
:1013900030E0260F371FBB2029F06B2D70E06F5F08
:1013A0007F4F02C060E070E0260F371F612F70E0B2
:1013B000261737071CF4121B212F01C020E03E2DF9
:1013C000387159F4D601322F60E2332319F06D934E
:1013D0003150FBCFC20ED11C20E0FF2331F0D601EB
:1013E0009C93B6016F5F7F4F6B01E1110BC0F6015B
:1013F000922F30E3992319F031939150FBCFC20E15
:10140000D11C20E09F2D940F3A81782F7071A72E68
:1014100084FF03C0313309F49150191624F4993034
:1014200018F098E001C091E0E42F852F57FF02C02B
:10143000E0E080E06E2F782FE0E0F0E0AEE29A2E60
:101440003A01691A71082A01461A570A0B2D10E051
:101450001195019511096F3F8FEF780729F4D60197
:101460009C92C60101966C014617570784F06616D8
:1014700077066CF47F01E40CF51CA1E0B0E0AC0F42
:10148000BD1FEA0EFB1ED7011196BC9002C090E36F
:10149000B92E615071093196C60101967C01601721
:1014A000710724F0D601BC926C01D5CF6417750783
:1014B00041F4363320F4353321F4A11002C081E326
:1014C000B82EF601B082F701822F90E2882319F03E
:1014D00091938150FBCFF701E20FF11D108280E064
:1014E00090E029960FB6F894DEBF0FBECDBFDF9116
:1014F000CF911F910F91FF90EF90DF90CF90BF9011
:10150000AF909F907F906F905F904F90089528309C
:1015100008F027E03327DA01990F311D87FD91602C
:1015200000966105710539F432602E5F3D9330E31A
:101530002A95E1F708959F3F30F0803871056105E5
:1015400009F03C5F3C5F3D93913008F08068911D4D
:10155000DF93CF931F930F93FF92EF92192F987FF2
:101560009695E92F96959695E90FFF27EE53FF4F35
:1015700099273327EE24FF24A701E701059008945B
:10158000079428F4360FE71EF81E491F511D660FF9
:10159000771F881F991F0694A1F70590079428F4D8
:1015A000E70EF81E491F561FC11D770F881F991F90
:1015B000661F0694A1F70590079428F4F80E491FBA
:1015C000561FC71FD11D880F991F661F771F0694CE
:1015D000A1F70590079420F4490F561FC71FD81F85
:1015E000990F661F771F881F0694A9F7849110959D
:1015F000177041F0D695C79557954795F794E7949E
:101600001A95C1F7E8E6F0E06894159015913591C8
:101610006591959105907FE27395E118F10A430B6E
:10162000560BC90BD009C0F7E10CF11E431F561F22
:10163000C91FD01D7EF4703311F48A95E6CFE8946B
:10164000015030F0080F0AF40027021708F4202F89
:101650002395022F7A3328F079E37D932A95E9F7D1
:1016600010C07D932A9589F60694979567953795CE
:1016700017951794E118F10A430B560BC90BD009C3
:1016800098F023957E9173957A3308F070E37C93FC
:101690002013B8F77E9170617D9330F0839571E3EC
:1016A0007D9370E32A95E1F71124EF90FF900F915D
:1016B0001F91CF91DF91992787FD909508950E9402
:1016C000A10B08F481E00895E89409C097FB3EF46B
:1016D00090958095709561957F4F8F4F9F4F99237F
:1016E000A9F0F92F96E9BB279395F69587957795FD
:1016F0006795B795F111F8CFFAF4BB0F11F460FFBD
:101700001BC06F5F7F4F8F4F9F4F16C0882311F014
:1017100096E911C0772321F09EE8872F762F05C028
:10172000662371F096E8862F70E060E02AF09A95C3
:10173000660F771F881FDAF7880F9695879597F9B8
:101740000895990F0008550FAA0BE0E8FEEF161652
:101750001706E807F907C0F012161306E407F507A5
:1017600098F0621B730B840B950B39F40A2661F019
:10177000232B242B252B21F408950A2609F4A140BC
:10178000A6958FEF811D811D089597F99F6780E8C9
:1017900070E060E008959FEF80EC089500240A94C3
:1017A0001616170618060906089500240A9412163C
:1017B0001306140605060895092E0394000C11F46F
:1017C000882352F0BB0F40F4BF2B11F460FF04C01C
:1017D0006F5F7F4F8F4F9F4F089557FD9058440F75
:1017E000551F59F05F3F71F04795880F97FB991F80
:1017F00061F09F3F79F0879508951216130614063D
:10180000551FF2CF4695F1DF08C0161617061806C9
:10181000991FF1CF86957105610508940895E894A4
:10182000BB2766277727CB0197F908952F923F9220
:101830004F925F926F927F928F929F92AF92BF92E0
:10184000CF92DF92EF92FF920F931F93CF93DF938C
:10185000CDB7DEB7CA1BDB0B0FB6F894DEBF0FBEE9
:10186000CDBF09942A88398848885F846E847D8436
:101870008C849B84AA84B984C884DF80EE80FD8038
:101880000C811B81AA81B981CE0FD11D0FB6F894AE
:10189000DEBF0FBECDBFED0108955058BB27AA276C
:1018A0000E94650C0C94DC0B0E94CE0B38F00E9459
:1018B000D50B20F039F49F3F19F426F40C94CB0B90
:1018C0000EF4E095E7FB0C94C50BE92F0E94ED0B9D
:1018D00058F3BA17620773078407950720F079F465
:1018E000A6F50C940F0C0EF4E0950B2EBA2FA02D3C
:1018F0000B01B90190010C01CA01A0011124FF27BD
:10190000591B99F0593F50F4503E68F11A16F040B7
:10191000A22F232F342F4427585FF3CF46953795B6
:101920002795A795F0405395C9F77EF41F16BA0B7B
:10193000620B730B840BBAF09150A1F0FF0FBB1F29
:10194000661F771F881FC2F70EC0BA0F621F731F72
:10195000841F48F4879577956795B795F7959E3FCF
:1019600008F0B0CF9395880F08F09927EE0F979560
:10197000879508950E94CE0C0C94DC0B0E94D50B29
:1019800058F00E94CE0B40F029F45F3F29F00C94F0
:10199000C50B51110C94100C0C94CB0B0E94ED0B49
:1019A00068F39923B1F3552391F3951B550BBB278E
:1019B000AA2762177307840738F09F5F5F4F220FD3
:1019C000331F441FAA1FA9F335D00E2E3AF0E0E8CA
:1019D00032D091505040E695001CCAF72BD0FE2F14
:1019E00029D0660F771F881FBB1F261737074807A8
:1019F000AB07B0E809F0BB0B802DBF01FF27935860
:101A00005F4F3AF09E3F510578F00C94C50B0C9453
:101A1000100C5F3FE4F3983ED4F386957795679575
:101A2000B795F7959F5FC9F7880F911D9695879594
:101A300097F90895E1E0660F771F881FBB1F6217B3
:101A400073078407BA0720F0621B730B840BBA0B71
:101A5000EE1F88F7E09508950E94A10B08F48FEF20
:101A60000895EE0FFF1F0590F491E02D0994CF9398
:101A7000DF938230910510F482E090E0E0919002D3
:101A8000F091910220E030E0C0E0D0E0309711F119
:101A90004081518148175907C0F04817590761F430
:101AA00082819381209719F09B838A832BC0909326
:101AB00091028093900226C02115310519F042173A
:101AC000530718F49A01BE01DF01EF010280F38190
:101AD000E02DDCCF2115310509F1281B390B24300D
:101AE000310590F412968D919C91139761157105B3
:101AF00021F0FB019383828304C090939102809331
:101B00009002FD01329644C0FD01E20FF31F819364
:101B10009193225031092D933C933AC020918E022B
:101B200030918F02232B41F4209102013091030167
:101B300030938F0220938E02209100013091010199
:101B40002115310541F42DB73EB740910401509164
:101B50000501241B350BE0918E02F0918F02E217F4
:101B6000F307A0F42E1B3F0B2817390778F0AC01C0
:101B70004E5F5F4F2417350748F04E0F5F1F50939D
:101B80008F0240938E028193919302C0E0E0F0E0D7
:101B9000CF01DF91CF9108950F931F93CF93DF93E0
:101BA000009709F48CC0FC013297138212820091D5
:101BB0009002109191020115110581F4208131816B
:101BC000820F931F20918E0230918F0228173907C0
:101BD00079F5F0938F02E0938E0271C0D80140E056
:101BE00050E0AE17BF0750F412962D913C91139719
:101BF000AD012115310509F1D901F3CF9D01DA01BC
:101C00003383228360817181860F971F8217930728
:101C100069F4EC0128813981260F371F2E5F3F4F71
:101C2000318320838A819B8193838283452B29F48E
:101C3000F0939102E093900242C01396FC93EE93CE
:101C40001297ED01499159919E01240F351FE2171A
:101C5000F30771F480819181840F951F029611968C
:101C60009C938E938281938113969C938E9312976B
:101C7000E0E0F0E0D80112968D919C9113970097C7
:101C800019F0F8018C01F6CF8D919C9198012E5F8F
:101C90003F4F820F931F20918E0230918F022817A1
:101CA000390769F4309729F410929102109290024A
:101CB00002C01382128210938F0200938E02DF9172
:101CC000CF911F910F910895A0E0B0E0EAE6FEE009
:101CD0000C941A0CEC01009721F4CB010E94370DF3
:101CE000B8C0FC01E60FF71F9C0122503109E21732
:101CF000F30708F4ACC0D9010D911C911197061798
:101D00001707B0F00530110508F49FC0C80104970B
:101D10008617970708F499C002501109061B170B84
:101D2000019311936D937C93CF010E94CC0D8DC0D4
:101D30005B01A01AB10A4C01800E911EA091900285
:101D4000B091910240E050E0E12CF12C109709F4A1
:101D50004AC0A815B905D1F56D907C901197630123
:101D600082E0C80ED11CCA14DB0480F1A3014A1919
:101D70005B096A0182E0C80ED11C1296BC901297D2
:101D80001396AC91B5E0CB16D10440F0B282A38398
:101D900051834083D9016D937C930AC00E5F1F4F1E
:101DA000C301800F911FF90191838083EB2DFA2FDE
:101DB000E114F10431F0D7011396FC93EE931297DE
:101DC00044C0F0939102E09390023FC08D919C91AA
:101DD00011974817590708F4AC017D0112960D9030
:101DE000BC91A02DB3CF80918E0290918F02881567
:101DF0009905E1F446175707C8F4809100019091C6
:101E00000101009741F48DB79EB7409104015091B4
:101E10000501841B950BE817F907C8F4F0938F02AE
:101E2000E0938E02F901718360830FC0CB010E94A1
:101E3000370D7C01009759F0A801BE010E94330FB5
:101E4000CE010E94CC0DC70104C0CE0102C080E0CB
:101E500090E0CDB7DEB7EEE00C94360C81E090E078
:101E6000F8940C94430FFB01DC0102C001900D9229
:101E700041505040D8F70895FB01DC0101900D92CC
:101E80000020E1F7089510E0CFEDD0E004C0FE019E
:101E90000E94310D2196C03ED107C9F7F894FFCFBB
:101EA000000092028000000000009D010A0135013F
:101EB000E4016601440158010000000060030A01CA
:101EC00020041F040D0A0020487A202E202D200017
:101ED00050415353004641494C002048494748204F
:101EE0005052455353555245202000202020544540
:101EF00053543A200054657374696E67204849470B
:101F000048205052455353555245202846554C4C75
:101F10002043572920467265712E202D2000202055
:101F20004C4F572050524553535552452020005492
:101F3000657374696E67204C4F5720505245535358
:101F4000555245202846554C4C204343572920469E
:081F50007265712E202D2000A6
:107E0000112484B714BE81FFF0D085E080938100F7
:107E100082E08093C00088E18093C10086E0809377
:107E2000C20080E18093C4008EE0C9D0259A86E02C
:107E300020E33CEF91E0309385002093840096BBD3
:107E4000B09BFECF1D9AA8958150A9F7CC24DD24C4
:107E500088248394B5E0AB2EA1E19A2EF3E0BF2EE7
:107E6000A2D0813461F49FD0082FAFD0023811F036
:107E7000013811F484E001C083E08DD089C08234E0
:107E800011F484E103C0853419F485E0A6D080C0E4
:107E9000853579F488D0E82EFF2485D0082F10E0AE
:107EA000102F00270E291F29000F111F8ED06801E7
:107EB0006FC0863521F484E090D080E0DECF843638
:107EC00009F040C070D06FD0082F6DD080E0C81688
:107ED00080E7D80618F4F601B7BEE895C0E0D1E017
:107EE00062D089930C17E1F7F0E0CF16F0E7DF06D8
:107EF00018F0F601B7BEE89568D007B600FCFDCFD4
:107F0000A601A0E0B1E02C9130E011968C91119780
:107F100090E0982F8827822B932B1296FA010C0160
:107F200087BEE89511244E5F5F4FF1E0A038BF0790
:107F300051F7F601A7BEE89507B600FCFDCF97BE46
:107F4000E89526C08437B1F42ED02DD0F82E2BD052
:107F50003CD0F601EF2C8F010F5F1F4F84911BD097
:107F6000EA94F801C1F70894C11CD11CFA94CF0C13
:107F7000D11C0EC0853739F428D08EE10CD085E9AC
:107F80000AD08FE07ACF813511F488E018D01DD067
:107F900080E101D065CF982F8091C00085FFFCCF94
:107FA0009093C60008958091C00087FFFCCF809118
:107FB000C00084FD01C0A8958091C6000895E0E648
:107FC000F0E098E1908380830895EDDF803219F02E
:107FD00088E0F5DFFFCF84E1DECF1F93182FE3DFCA
:107FE0001150E9F7F2DF1F91089580E0E8DFEE27F6
:047FF000FF270994CA
:027FFE00040479
:0400000300007E007B
:00000001FF
